:020000040000FA
:060000000A128A11FB2F19
:100F6400831203131E0885000800C730F100BA2F4E
:100F7400F10BB92FBD2FBE2F831203131F149F181B
:100F8400C42FC52FC62F9F140A128A11B2270A1222
:100F94008A11B72F0800831603130F088F3960389E
:100FA4008F008316031788012030890083160313EA
:100FB4008501233086008701880189018312031388
:100FC4008501233086008701880189011F179F133B
:100FD4001F159F111F169F16831603139F131F12AD
:100FE4009F120A128A11B7270A128A110A128A1149
:0C0FF4000028F00183010A128A11CD2FA1
:04400E00D4E0FFFFFC
:00000001FF
