:020000040000FA
:060000000A128A110C280F
:10000800FE00030EF9000A08FA000A128A112928CC
:100018000A128A110F2883134030FD000130FE00B8
:100028003230FF00203084000A128A1156210A1249
:100038008A11F001F101F201F301F401F501F60171
:10004800F70183010A128A1184280B1D2C282D28F8
:100058003A280A128A1178210A128A110B110230E1
:10006800831203138100750885007D280B1C3D2829
:100078003E2876280B108B1383120313061C452881
:1000880046284928F101F10A8B1306184C284D28F7
:100098005D287103031D512852285D28F1010130A4
:1000A800F8007808F2077208F8007808F5008B174E
:1000B8007D28861C602861286428F001F00A8B13CB
:1000C8008618672868287D287003031D6C286D280A
:1000D8007D28F0010130F2027208F8007808F50076
:1000E8008B177D28831203130C1F7B287C287D28FF
:1000F8000C137A088A00790E8300FE0E7E0E090022
:100108007030831603138F048F110F118F100F1483
:10011800831603178801203089008316031385018D
:100128002330860087018801890183120313850122
:1001380086018701880189011F179F131F159F11C9
:100148001F169F161F14831603139F131F129F1247
:1001580081170113811201128111F83081050230D3
:100168008312031381008B178B160B11831603134D
:100178000C17831203130C130B170B108B15831614
:10018800031316149614F501F601831203130811CC
:1001980008108810F301F401F7010A128A11D92016
:1001A8000A128A110A128A110C2875087602031C91
:1001B800DE28DF28E2288312031308157508760263
:1001C8000318E728E828EB28831203130811C7301F
:1001D800FD00EE28FD0BED28F128F2288312031309
:1001E8009F18F728F828F9289F141E08FD007D0895
:1001F800F6001E08FD007D08F4001E08FD007D08BD
:10020800F3000A128A1165210A128A110A128A1148
:1002180011210A128A11D9280800831203138701B1
:10022800081088107703031D1A291B29242974082C
:10023800303E840083130008870008148810312991
:100248007708031D2829292931297308203E8400AD
:100258008313000887008814081008003F34063408
:100268005B344F3466346D347D3407347F346F34F7
:1002780077347C3439345E34793471343F3406341D
:100288005B344F3466346D347D3407347F346F34D7
:1002980077347C3439345E34793471347E088A009A
:1002A8007F0882000A128A1152210A128A118000DC
:1002B800840A04087D0603190034FF0A0319FE0A9C
:1002C800562974080F39FB007B08F4007308FB00FB
:1002D80004300310FB0CFF3E031D6D297B080F390A
:1002E800FC007C08F30008007703031D7C297D29A6
:0C02F8007F29F7018129F701F70A0800AF
:04400E00D4E0FFFFFC
:00000001FF
