:020000040000FA
:060000000A128A110C280F
:10000800FE00030EF7000A08F8000A128A11FC28FD
:100018000A128A110F2883134030FD000030FE00B9
:10002800DC30FF00203084000A128A1117210A12DE
:100038008A11F001F101F201F301F401F501F60171
:1000480083010A128A117828C730FB002B28FB0B82
:100058002A282E282F28831203139F18342835287E
:1000680036289F14061C39283A283C28F101F10A41
:1000780006183F2840284E287103031D44284528A8
:100088004E28F1010130FB007B08F2077208FB00E3
:100098007B08F500861C512852285428F001F00AE4
:1000A80086185728582864287003031D5C285D2883
:1000B8006428F0010130F2027208FB007B08F500A9
:1000C8001E08FB007B08F4001E08FB007B08F300F9
:1000D8000A128A1126210A128A110A128A11BB20D1
:1000E8000A128A1128280800831603130F088F396B
:1000F80060388F008F110F118F100F14831603179C
:100108008801203089008316031385012330860077
:1001180087018801890183120313850186018701FC
:10012800880189011F179F131F159F111F169F16FE
:100138001F14831603139F131F129F128117011395
:10014800811201128111F8308105023083120313E4
:1001580081008B178B160B15F301F401F6010A12B7
:100168008A1128200A128A110A128A110C2883126D
:1001780003138701081088107603031DC428C528B7
:10018800CE287408303E84008313000887000814C2
:100198008810DB287608031DD228D328DB287308AB
:1001A800203E840083130008870088140810080084
:1001B8003F3406345B344F3466346D347D34073451
:1001C8007F346F3477347C3439345E347934713425
:1001D8003F3406345B344F3466346D347D34073431
:1001E8007F346F3477347C3439345E347934713405
:1001F8000B1DFF2800290C290A128A1139210A121D
:100208008A110B11023083120313810075088500CF
:1002180078088A00770E8300FE0E7E0E09007E089D
:100228008A007F0882000A128A1113210A128A1191
:100238008000840A04087D0603190034FF0A0319A4
:10024800FE0A172974080F39F9007908F4007308B1
:10025800F90004300310F90CFF3E031D2E2979081C
:100268000F39FA007A08F30008007603031D3D29C8
:0E0278003E294029F6014229F601F60A080047
:04400E00D4E0FFFFFC
:00000001FF
