:020000040000FA
:060000000A128A110C280F
:10000800FE00030EF8000A08F9000A128A111629E0
:100018000A128A110F2883134030FD000030FE00B9
:10002800F630FF00203084000A128A1131210A12AA
:100038008A11F001F101F201F301F401F501F60171
:10004800F70183010A128A118F2875087602031CAA
:100058002E282F28322883120313081575087602D4
:100068000318372838283B28831203130811C73090
:10007800FC003E28FC0B3D2841284228831203132C
:100088009F184728482849289F14061C4C284D28A3
:100098004F28F101F10A06185228532861287103E4
:1000A800031D572858286128F1010130FC007C08FD
:1000B800F2077208FC007C08F500861C6428652895
:1000C8006728F001F00A86186A286B2877287003D9
:1000D800031D6F2870287728F0010130F20272089A
:1000E800FC007C08F5001E08FC007C08F6001E08D1
:1000F800FC007C08F4001E08FC007C08F3000A12CF
:100108008A1140210A128A110A128A11D5200A126C
:100118008A11292808007030831603138F048F1161
:100128000F118F100F1483160317880120308900D0
:10013800831603138501233086008701880189010E
:1001480083120313850186018701880189011F171E
:100158009F131F159F111F169F161F148316031335
:100168009F131F129F12811701138112011281110F
:10017800F830810502308312031381008B178B1628
:100188000B15F501F601081108108810F301F401A8
:10019800F7010A128A1129200A128A110A128A11F1
:1001A8000C28831203138701081088107703031D96
:1001B800DE28DF28E8287408303E8400831300080E
:1001C800870008148810F5287708031DEC28ED2807
:1001D800F5287308203E84008313000887008814DC
:1001E800081008003F3406345B344F3466346D34ED
:1001F8007D3407347F346F3477347C3439345E345B
:10020800793471343F3406345B344F3466346D349A
:100218007D3407347F346F3477347C3439345E343A
:10022800793471340B1D19291A2926290A128A11C1
:1002380053210A128A110B11023083120313810011
:100248007508850079088A00780E8300FE0E7E0EF8
:1002580009007E088A007F0882000A128A112D216F
:100268000A128A118000840A04087D0603190034E2
:10027800FF0A0319FE0A312974080F39FA007A08AF
:10028800F4007308FA0004300310FA0CFF3E031D53
:1002980048297A080F39FB007B08F3000800770328
:1002A800031D572958295A29F7015C29F701F70A2C
:0202B80008003C
:04400E00D4E0FFFFFC
:00000001FF
