:020000040000FA
:060000000A128A110C280F
:10000800FE00030EF9000A08FA000A128A112928CC
:100018000A128A110F2883134030FD000130FE00B8
:100028003430FF00203084000A128A1158210A1245
:100038008A11F001F101F201F301F401F501F60171
:10004800F70183010A128A1190280B1D2C282D28EC
:100058003A280A128A117A210A128A110B110230DF
:100068008312031381007508850089280B1C3D281D
:100078003E2876280B108B1383120313061C452881
:1000880046284928F101F10A8B1306184C284D28F7
:100098005D287103031D512852285D28F1010130A4
:1000A800F8007808F2077208F8007808F5008B174E
:1000B8008928861C602861286428F001F00A8B13BF
:1000C80086186728682889287003031D6C286D28FE
:1000D8008928F0010130F2027208F8007808F5006A
:1000E8008B178928831203130C1F7B287C288928E7
:1000F8000C131E08F8007808F6001E08F8007808A7
:10010800F4001E08F8007808F3007A088A00790ECF
:100118008300FE0E7E0E09007030831603138F04D1
:100128008F110F118F100F148316031788012030B9
:10013800890083160313850123308600870188010F
:1001480089018312031385018601870188018901CA
:100158001F179F131F159F111F169F161F14831615
:1001680003139F131F129F1281170113811201128B
:100178008111F830810502308312031381008B1737
:100188008B160B11831603130C17831203130C130E
:100198000B170B108B158316031316149614F50101
:1001A800F60183120313081108108810F301F401F3
:1001B800F7010A128A11E5200A128A110A128A1115
:1001C8000C28760875020318EA28EB28EE28831213
:1001D80003130815750876020318F328F428F7287E
:1001E800831203130811C730FD00FA28FD0BF92804
:1001F800FD28FE28831203139F1803290429E528E4
:100208000A128A1167210A128A110A128A11132105
:100218000A128A11831203139F14E5280800831217
:1002280003138701081088107703031D1C291D2953
:1002380026297408303E84008313000887000814B8
:10024800881033297708031D2A292B293329730895
:10025800203E8400831300088700881408100800D3
:100268003F3406345B344F3466346D347D340734A0
:100278007F346F3477347C3439345E347934713474
:100288003F3406345B344F3466346D347D34073480
:100298007F346F3477347C3439345E347934713454
:1002A8007E088A007F0882000A128A1154210A12E5
:1002B8008A118000840A04087D0603190034FF0AA5
:1002C8000319FE0A582974080F39FB007B08F4004B
:1002D8007308FB0004300310FB0CFF3E031D6F295D
:1002E8007B080F39FC007C08F30008007703031D26
:1002F8007E297F298129F7018329F701F70A080058
:04400E00D4E0FFFFFC
:00000001FF
