:020000040000FA
:060000000A128A110E280D
:10000800FE00030EF0000408F1000A08F2000A12CC
:100018008A11CE280A128A11112883134030FD0054
:100028000030FE00AE30FF00203084000A128A1132
:10003800E7200A128A11F601F701F801F901830194
:100048000A128A112728831603130F088F3960387C
:100058008F008F110F118F100F148316031788014B
:100068002030890083160313850123308600870119
:10007800880189018312031385018601870188019C
:1000880089011F179F131F159F111F169F161F14F5
:10009800831603139F131F129F12811701138112D6
:1000A80001128111F8308105023083120313810097
:1000B8008B178B160B11F801F9010A128A118D2082
:1000C8000A128A110A128A110E2883120313870151
:1000D800081088107903031D722873287D28780872
:1000E800303E840083130008870008148810F90143
:1000F8008C287908031D812882288C287708203EBF
:10010800840083130008870088140810F901F90A8D
:100118000800C730F5009028F50B8F2893289428FD
:10012800831203139F1899289A289B289F141E0846
:10013800F5007508F6001E08F5007508F8001E0899
:10014800F5007508F7000A128A11F6200A128A11BA
:100158008D2808003F3406345B344F3466346D34E0
:100168007D3407347F346F3477347C3439345E34EB
:10017800793471343F3406345B344F3466346D342B
:100188007D3407347F346F3477347C3439345E34CB
:10019800793471340B11023083120313810076080D
:1001A80085000A128A1169200A128A1172088A00C7
:1001B80071088400700E8300FE0E7E0E09007E0812
:1001C8008A007F0882000A128A11E3200A128A1123
:1001D8008000840A04087D0603190034FF0A031905
:1001E800FE0AE72878080F39F3007308F800770843
:1001F800F30004300310F30CFF3E031DFE287308C0
:0A0208000F39F4007408F700080035
:04400E00D4E0FFFFFC
:00000001FF
