:020000040000FA
:060000000A128A110C280F
:10000800FE00030EF0000A08F1000A128A11F42813
:100018000A128A110F2883134030FD000030FE00B9
:10002800AE30FF00203084000A128A11D2200A1252
:100038008A11F501F601F701F80183010A128A1104
:100048002528831603130F088F3950388F008F1116
:100058000F118F100F1483160317880120308900A1
:1000680083160313850123308600870188018901DF
:1000780083120313850186018701880189011F17EF
:100088009F131F159F111F169F161F148316031306
:100098009F131F129F1281170113811201128111E0
:1000A800F830810502308312031381008B178B16F9
:1000B8000B15F701F8010A128A1167200A128A1132
:1000C8000A128A110C28C730F4006A28F40B692830
:1000D8006D286E28831203139F18732874287528B7
:1000E8009F141E08F4007408F5001E08F400740834
:1000F800F7001E08F4007408F6000A128A11E120BD
:100108000A128A110A128A118D200A128A11672886
:100118000800831203138701081088107803031D51
:1001280096289728A0287708303E84008313000873
:10013800870008148810AD287808031DA428A5286E
:10014800AD287608203E84008313000887008814B1
:10015800081008003F3406345B344F3466346D347D
:100168007D3407347F346F3477347C3439345E34EB
:10017800793471343F3406345B344F3466346D342B
:100188007D3407347F346F3477347C3439345E34CB
:10019800793471347E088A007F0882000A128A1135
:1001A800CE200A128A118000840A04087D060319E9
:1001B8000034FF0A0319FE0AD22877080F39F20023
:1001C8007208F7007608F20004300310F20CFF3EC4
:1001D800031DE92872080F39F3007308F6000800B8
:1001E8000A128A1107210A128A110B11023083128E
:1001F800031381007508850071088A00700E83005A
:10020800FE0E7E0E09007803031D0B290C290E290A
:0A021800F8011029F801F80A0800A7
:04400E00D4E0FFFFFC
:00000001FF
