:020000040000FA
:060000000A128A110C280F
:10000800FE00030EF9000A08FA000A128A1177287E
:100018000A128A110F2883134030FD000130FE00B8
:100028003430FF00203084000A128A116D210A1230
:100038008A11C301F001F101F201F301F401F501A4
:10004800F60183010A128A117C2970308316031382
:100058008F048F110F118F100F1483160317880147
:100068002030890083160313850123308600870119
:10007800880189018312031385018601870188019C
:1000880089011F179F131F159F111F169F161F14F5
:10009800831603139F131F129F12811701138112D6
:1000A80001128111F8308105023083120313810097
:1000B8008B178B160B11831603130C17831203135C
:1000C8000C130B170B108B158316031316149614A9
:1000D800F401F50183120313081108108810F201C6
:1000E800F301F60108000B1D7A287B2888280A12DC
:1000F8008A1189210A128A110B1102308312031303
:10010800810074088500A7280B1C8B288C2894284C
:100118000B108B130A128A11AE200A128A11A72813
:10012800831203130C1F99289A28A7280C131E085A
:10013800F8007808F5001E08F8007808F3001E0893
:10014800F8007808F2007A088A00790E8300FE0E1B
:100158007E0E090083120313061CB328B428B7289F
:10016800F001F00A8B130618BA28BB28CB287003B5
:10017800031DBF28C028CB28F0010130F7007708FD
:10018800F1077108F7007708F4008B17E328861C3D
:10019800CE28CF28D228C301C30A8B138618D528A6
:1001A800D628E3284303031DDA28DB28E328C30104
:1001B8000130F1027108F7007708F4008B17080086
:1001C800750874020318E928EA28ED288312031336
:1001D800081575087402031CF228F328F628831200
:1001E80003130811C73083120313C200FB28C20B84
:1001F800FA28FE28831203139F1803290429E428E8
:100208000A128A1154210A128A110A128A11132118
:100218000A128A11831203139F14E4280800831218
:1002280003138701081088107603031D1C291D2954
:1002380026297308303E84008313000887000814B9
:10024800881033297608031D2A292B293329720897
:10025800203E8400831300088700881408100800D3
:100268003F3406345B344F3466346D347D340734A0
:100278007F346F3477347C3439345E347934713474
:100288003F3406345B344F3466346D347D34073480
:100298007F346F3477347C3439345E347934713454
:1002A80073080F3983120313C0004008F300720863
:1002B800C00004300310C00CFF3E031D5E29400837
:1002C8000F39C1004108F20008007E088A007F0843
:1002D80082000A128A1169210A128A118000840A8E
:1002E80004087D0603190034FF0A0319FE0A6D2964
:1002F8000A128A1129200A128A110A128A11E42084
:100308000A128A110A128A110C287603031D8D29F4
:0E0318008E299029F6019229F601F60A0800B6
:04400E00D4E0FFFFFC
:00000001FF
